{
  "_format": "hh-sol-artifact-1",
  "contractName": "Domains",
  "sourceName": "contracts/Domains.sol",
  "abi": [
    {
      "inputs": [
        {
          "internalType": "string",
          "name": "_tld",
          "type": "string"
        }
      ],
      "stateMutability": "payable",
      "type": "constructor"
    },
    {
      "inputs": [],
      "name": "AlreadyRegistered",
      "type": "error"
    },
    {
      "inputs": [
        {
          "internalType": "string",
          "name": "name",
          "type": "string"
        }
      ],
      "name": "InvalidName",
      "type": "error"
    },
    {
      "inputs": [],
      "name": "Unauthorized",
      "type": "error"
    },
    {
      "anonymous": false,
      "inputs": [
        {
          "indexed": true,
          "internalType": "address",
          "name": "owner",
          "type": "address"
        },
        {
          "indexed": true,
          "internalType": "address",
          "name": "approved",
          "type": "address"
        },
        {
          "indexed": true,
          "internalType": "uint256",
          "name": "tokenId",
          "type": "uint256"
        }
      ],
      "name": "Approval",
      "type": "event"
    },
    {
      "anonymous": false,
      "inputs": [
        {
          "indexed": true,
          "internalType": "address",
          "name": "owner",
          "type": "address"
        },
        {
          "indexed": true,
          "internalType": "address",
          "name": "operator",
          "type": "address"
        },
        {
          "indexed": false,
          "internalType": "bool",
          "name": "approved",
          "type": "bool"
        }
      ],
      "name": "ApprovalForAll",
      "type": "event"
    },
    {
      "anonymous": false,
      "inputs": [
        {
          "indexed": true,
          "internalType": "address",
          "name": "from",
          "type": "address"
        },
        {
          "indexed": true,
          "internalType": "address",
          "name": "to",
          "type": "address"
        },
        {
          "indexed": true,
          "internalType": "uint256",
          "name": "tokenId",
          "type": "uint256"
        }
      ],
      "name": "Transfer",
      "type": "event"
    },
    {
      "inputs": [
        {
          "internalType": "address",
          "name": "to",
          "type": "address"
        },
        {
          "internalType": "uint256",
          "name": "tokenId",
          "type": "uint256"
        }
      ],
      "name": "approve",
      "outputs": [],
      "stateMutability": "nonpayable",
      "type": "function"
    },
    {
      "inputs": [
        {
          "internalType": "address",
          "name": "owner",
          "type": "address"
        }
      ],
      "name": "balanceOf",
      "outputs": [
        {
          "internalType": "uint256",
          "name": "",
          "type": "uint256"
        }
      ],
      "stateMutability": "view",
      "type": "function"
    },
    {
      "inputs": [
        {
          "internalType": "uint256",
          "name": "",
          "type": "uint256"
        }
      ],
      "name": "domainNames",
      "outputs": [
        {
          "internalType": "string",
          "name": "",
          "type": "string"
        }
      ],
      "stateMutability": "view",
      "type": "function"
    },
    {
      "inputs": [
        {
          "internalType": "string",
          "name": "",
          "type": "string"
        }
      ],
      "name": "domains",
      "outputs": [
        {
          "internalType": "address",
          "name": "",
          "type": "address"
        }
      ],
      "stateMutability": "view",
      "type": "function"
    },
    {
      "inputs": [
        {
          "internalType": "string",
          "name": "name",
          "type": "string"
        }
      ],
      "name": "getAddress",
      "outputs": [
        {
          "internalType": "address",
          "name": "",
          "type": "address"
        }
      ],
      "stateMutability": "view",
      "type": "function"
    },
    {
      "inputs": [],
      "name": "getAllNames",
      "outputs": [
        {
          "internalType": "string[]",
          "name": "",
          "type": "string[]"
        }
      ],
      "stateMutability": "view",
      "type": "function"
    },
    {
      "inputs": [
        {
          "internalType": "uint256",
          "name": "tokenId",
          "type": "uint256"
        }
      ],
      "name": "getApproved",
      "outputs": [
        {
          "internalType": "address",
          "name": "",
          "type": "address"
        }
      ],
      "stateMutability": "view",
      "type": "function"
    },
    {
      "inputs": [
        {
          "internalType": "string",
          "name": "name",
          "type": "string"
        }
      ],
      "name": "getRecord",
      "outputs": [
        {
          "internalType": "string",
          "name": "",
          "type": "string"
        }
      ],
      "stateMutability": "view",
      "type": "function"
    },
    {
      "inputs": [
        {
          "internalType": "address",
          "name": "owner",
          "type": "address"
        },
        {
          "internalType": "address",
          "name": "operator",
          "type": "address"
        }
      ],
      "name": "isApprovedForAll",
      "outputs": [
        {
          "internalType": "bool",
          "name": "",
          "type": "bool"
        }
      ],
      "stateMutability": "view",
      "type": "function"
    },
    {
      "inputs": [],
      "name": "isOwner",
      "outputs": [
        {
          "internalType": "bool",
          "name": "",
          "type": "bool"
        }
      ],
      "stateMutability": "view",
      "type": "function"
    },
    {
      "inputs": [],
      "name": "name",
      "outputs": [
        {
          "internalType": "string",
          "name": "",
          "type": "string"
        }
      ],
      "stateMutability": "view",
      "type": "function"
    },
    {
      "inputs": [],
      "name": "owner",
      "outputs": [
        {
          "internalType": "address payable",
          "name": "",
          "type": "address"
        }
      ],
      "stateMutability": "view",
      "type": "function"
    },
    {
      "inputs": [
        {
          "internalType": "uint256",
          "name": "tokenId",
          "type": "uint256"
        }
      ],
      "name": "ownerOf",
      "outputs": [
        {
          "internalType": "address",
          "name": "",
          "type": "address"
        }
      ],
      "stateMutability": "view",
      "type": "function"
    },
    {
      "inputs": [
        {
          "internalType": "string",
          "name": "name",
          "type": "string"
        }
      ],
      "name": "price",
      "outputs": [
        {
          "internalType": "uint256",
          "name": "",
          "type": "uint256"
        }
      ],
      "stateMutability": "pure",
      "type": "function"
    },
    {
      "inputs": [
        {
          "internalType": "string",
          "name": "",
          "type": "string"
        }
      ],
      "name": "records",
      "outputs": [
        {
          "internalType": "string",
          "name": "",
          "type": "string"
        }
      ],
      "stateMutability": "view",
      "type": "function"
    },
    {
      "inputs": [
        {
          "internalType": "string",
          "name": "name",
          "type": "string"
        }
      ],
      "name": "register",
      "outputs": [],
      "stateMutability": "payable",
      "type": "function"
    },
    {
      "inputs": [
        {
          "internalType": "address",
          "name": "from",
          "type": "address"
        },
        {
          "internalType": "address",
          "name": "to",
          "type": "address"
        },
        {
          "internalType": "uint256",
          "name": "tokenId",
          "type": "uint256"
        }
      ],
      "name": "safeTransferFrom",
      "outputs": [],
      "stateMutability": "nonpayable",
      "type": "function"
    },
    {
      "inputs": [
        {
          "internalType": "address",
          "name": "from",
          "type": "address"
        },
        {
          "internalType": "address",
          "name": "to",
          "type": "address"
        },
        {
          "internalType": "uint256",
          "name": "tokenId",
          "type": "uint256"
        },
        {
          "internalType": "bytes",
          "name": "_data",
          "type": "bytes"
        }
      ],
      "name": "safeTransferFrom",
      "outputs": [],
      "stateMutability": "nonpayable",
      "type": "function"
    },
    {
      "inputs": [
        {
          "internalType": "address",
          "name": "operator",
          "type": "address"
        },
        {
          "internalType": "bool",
          "name": "approved",
          "type": "bool"
        }
      ],
      "name": "setApprovalForAll",
      "outputs": [],
      "stateMutability": "nonpayable",
      "type": "function"
    },
    {
      "inputs": [
        {
          "internalType": "string",
          "name": "name",
          "type": "string"
        },
        {
          "internalType": "string",
          "name": "record",
          "type": "string"
        }
      ],
      "name": "setRecord",
      "outputs": [],
      "stateMutability": "nonpayable",
      "type": "function"
    },
    {
      "inputs": [
        {
          "internalType": "bytes4",
          "name": "interfaceId",
          "type": "bytes4"
        }
      ],
      "name": "supportsInterface",
      "outputs": [
        {
          "internalType": "bool",
          "name": "",
          "type": "bool"
        }
      ],
      "stateMutability": "view",
      "type": "function"
    },
    {
      "inputs": [],
      "name": "symbol",
      "outputs": [
        {
          "internalType": "string",
          "name": "",
          "type": "string"
        }
      ],
      "stateMutability": "view",
      "type": "function"
    },
    {
      "inputs": [],
      "name": "tld",
      "outputs": [
        {
          "internalType": "string",
          "name": "",
          "type": "string"
        }
      ],
      "stateMutability": "view",
      "type": "function"
    },
    {
      "inputs": [
        {
          "internalType": "uint256",
          "name": "tokenId",
          "type": "uint256"
        }
      ],
      "name": "tokenURI",
      "outputs": [
        {
          "internalType": "string",
          "name": "",
          "type": "string"
        }
      ],
      "stateMutability": "view",
      "type": "function"
    },
    {
      "inputs": [
        {
          "internalType": "address",
          "name": "from",
          "type": "address"
        },
        {
          "internalType": "address",
          "name": "to",
          "type": "address"
        },
        {
          "internalType": "uint256",
          "name": "tokenId",
          "type": "uint256"
        }
      ],
      "name": "transferFrom",
      "outputs": [],
      "stateMutability": "nonpayable",
      "type": "function"
    },
    {
      "inputs": [
        {
          "internalType": "string",
          "name": "name",
          "type": "string"
        }
      ],
      "name": "valid",
      "outputs": [
        {
          "internalType": "bool",
          "name": "",
          "type": "bool"
        }
      ],
      "stateMutability": "pure",
      "type": "function"
    },
    {
      "inputs": [],
      "name": "withdraw",
      "outputs": [],
      "stateMutability": "nonpayable",
      "type": "function"
    }
  ],
  "bytecode": "0x6080604052604051806108a0016040528061086b81526020016200535f61086b91396009908051906020019062000038929190620002c8565b506040518060400160405280600d81526020017f3c2f746578743e3c2f7376673e00000000000000000000000000000000000000815250600a908051906020019062000086929190620002c8565b5060405162005bca38038062005bca8339818101604052810190620000ac919062000515565b6040518060400160405280601181526020017f446f6765204e616d6520536572766963650000000000000000000000000000008152506040518060400160405280600381526020017f444e530000000000000000000000000000000000000000000000000000000000815250816000908051906020019062000130929190620002c8565b50806001908051906020019062000149929190620002c8565b50505033600e60006101000a81548173ffffffffffffffffffffffffffffffffffffffff021916908373ffffffffffffffffffffffffffffffffffffffff1602179055508060089080519060200190620001a5929190620002c8565b50620001f26040518060400160405280601881526020017f2573206e616d652073657276696365206465706c6f796564000000000000000081525082620001f960201b62001b991760201c565b5062000663565b6200029b828260405160240162000212929190620005c3565b6040516020818303038152906040527f4b5c4277000000000000000000000000000000000000000000000000000000007bffffffffffffffffffffffffffffffffffffffffffffffffffffffff19166020820180517bffffffffffffffffffffffffffffffffffffffffffffffffffffffff83818316178352505050506200029f60201b60201c565b5050565b60008151905060006a636f6e736f6c652e6c6f679050602083016000808483855afa5050505050565b828054620002d6906200062d565b90600052602060002090601f016020900481019282620002fa576000855562000346565b82601f106200031557805160ff191683800117855562000346565b8280016001018555821562000346579182015b828111156200034557825182559160200191906001019062000328565b5b50905062000355919062000359565b5090565b5b80821115620003745760008160009055506001016200035a565b5090565b6000604051905090565b600080fd5b600080fd5b600080fd5b600080fd5b6000601f19601f8301169050919050565b7f4e487b7100000000000000000000000000000000000000000000000000000000600052604160045260246000fd5b620003e18262000396565b810181811067ffffffffffffffff82111715620004035762000402620003a7565b5b80604052505050565b60006200041862000378565b9050620004268282620003d6565b919050565b600067ffffffffffffffff821115620004495762000448620003a7565b5b620004548262000396565b9050602081019050919050565b60005b838110156200048157808201518184015260208101905062000464565b8381111562000491576000848401525b50505050565b6000620004ae620004a8846200042b565b6200040c565b905082815260208101848484011115620004cd57620004cc62000391565b5b620004da84828562000461565b509392505050565b600082601f830112620004fa57620004f96200038c565b5b81516200050c84826020860162000497565b91505092915050565b6000602082840312156200052e576200052d62000382565b5b600082015167ffffffffffffffff8111156200054f576200054e62000387565b5b6200055d84828501620004e2565b91505092915050565b600081519050919050565b600082825260208201905092915050565b60006200058f8262000566565b6200059b818562000571565b9350620005ad81856020860162000461565b620005b88162000396565b840191505092915050565b60006040820190508181036000830152620005df818562000582565b90508181036020830152620005f5818462000582565b90509392505050565b7f4e487b7100000000000000000000000000000000000000000000000000000000600052602260045260246000fd5b600060028204905060018216806200064657607f821691505b602082108114156200065d576200065c620005fe565b5b50919050565b614cec80620006736000396000f3fe60806040526004361061019c5760003560e01c806370a08231116100ec578063bf40fac11161008a578063e985e9c511610064578063e985e9c514610624578063f2c298be14610661578063fb825e5f1461067d578063fe2c6198146106a85761019c565b8063bf40fac114610581578063c1880a98146105be578063c87b56dd146105e75761019c565b806395d89b41116100c657806395d89b41146104c75780639791c097146104f2578063a22cb4651461052f578063b88d4fde146105585761019c565b806370a08231146104345780638da5cb5b146104715780638f32d59b1461049c5761019c565b8063264492351161015957806342842e0e1161013357806342842e0e14610354578063541e771d1461037d5780636352211e146103ba578063636921cf146103f75761019c565b806326449235146102d55780632d551432146103125780633ccfd60b1461033d5761019c565b806301ffc9a7146101a157806306fdde03146101de578063081812fc14610209578063095ea7b31461024657806311dd88451461026f57806323b872dd146102ac575b600080fd5b3480156101ad57600080fd5b506101c860048036038101906101c3919061305f565b6106e5565b6040516101d591906130a7565b60405180910390f35b3480156101ea57600080fd5b506101f36107c7565b604051610200919061315b565b60405180910390f35b34801561021557600080fd5b50610230600480360381019061022b91906131b3565b610859565b60405161023d9190613221565b60405180910390f35b34801561025257600080fd5b5061026d60048036038101906102689190613268565b6108de565b005b34801561027b57600080fd5b506102966004803603810190610291919061330d565b6109f6565b6040516102a3919061315b565b60405180910390f35b3480156102b857600080fd5b506102d360048036038101906102ce919061335a565b610aa9565b005b3480156102e157600080fd5b506102fc60048036038101906102f791906134dd565b610b09565b6040516103099190613221565b60405180910390f35b34801561031e57600080fd5b50610327610b52565b604051610334919061315b565b60405180910390f35b34801561034957600080fd5b50610352610be0565b005b34801561036057600080fd5b5061037b6004803603810190610376919061335a565b610ca6565b005b34801561038957600080fd5b506103a4600480360381019061039f91906134dd565b610cc6565b6040516103b1919061315b565b60405180910390f35b3480156103c657600080fd5b506103e160048036038101906103dc91906131b3565b610d7c565b6040516103ee9190613221565b60405180910390f35b34801561040357600080fd5b5061041e600480360381019061041991906131b3565b610e2e565b60405161042b919061315b565b60405180910390f35b34801561044057600080fd5b5061045b60048036038101906104569190613526565b610ece565b6040516104689190613562565b60405180910390f35b34801561047d57600080fd5b50610486610f86565b604051610493919061359e565b60405180910390f35b3480156104a857600080fd5b506104b1610fac565b6040516104be91906130a7565b60405180910390f35b3480156104d357600080fd5b506104dc611004565b6040516104e9919061315b565b60405180910390f35b3480156104fe57600080fd5b506105196004803603810190610514919061330d565b611096565b60405161052691906130a7565b60405180910390f35b34801561053b57600080fd5b50610556600480360381019061055191906135e5565b61114a565b005b34801561056457600080fd5b5061057f600480360381019061057a91906136c6565b611160565b005b34801561058d57600080fd5b506105a860048036038101906105a3919061330d565b6111c2565b6040516105b59190613221565b60405180910390f35b3480156105ca57600080fd5b506105e560048036038101906105e09190613749565b61120d565b005b3480156105f357600080fd5b5061060e600480360381019061060991906131b3565b6112e8565b60405161061b919061315b565b60405180910390f35b34801561063057600080fd5b5061064b600480360381019061064691906137ca565b61143a565b60405161065891906130a7565b60405180910390f35b61067b6004803603810190610676919061330d565b6114ce565b005b34801561068957600080fd5b5061069261194c565b60405161069f9190613916565b60405180910390f35b3480156106b457600080fd5b506106cf60048036038101906106ca919061330d565b611b0d565b6040516106dc9190613562565b60405180910390f35b60007f80ac58cd000000000000000000000000000000000000000000000000000000007bffffffffffffffffffffffffffffffffffffffffffffffffffffffff1916827bffffffffffffffffffffffffffffffffffffffffffffffffffffffff191614806107b057507f5b5e139f000000000000000000000000000000000000000000000000000000007bffffffffffffffffffffffffffffffffffffffffffffffffffffffff1916827bffffffffffffffffffffffffffffffffffffffffffffffffffffffff1916145b806107c057506107bf82611c35565b5b9050919050565b6060600080546107d690613967565b80601f016020809104026020016040519081016040528092919081815260200182805461080290613967565b801561084f5780601f106108245761010080835404028352916020019161084f565b820191906000526020600020905b81548152906001019060200180831161083257829003601f168201915b5050505050905090565b600061086482611c9f565b6108a3576040517f08c379a000000000000000000000000000000000000000000000000000000000815260040161089a90613a0b565b60405180910390fd5b6004600083815260200190815260200160002060009054906101000a900473ffffffffffffffffffffffffffffffffffffffff169050919050565b60006108e982610d7c565b90508073ffffffffffffffffffffffffffffffffffffffff168373ffffffffffffffffffffffffffffffffffffffff16141561095a576040517f08c379a000000000000000000000000000000000000000000000000000000000815260040161095190613a9d565b60405180910390fd5b8073ffffffffffffffffffffffffffffffffffffffff16610979611d0b565b73ffffffffffffffffffffffffffffffffffffffff1614806109a857506109a7816109a2611d0b565b61143a565b5b6109e7576040517f08c379a00000000000000000000000000000000000000000000000000000000081526004016109de90613b2f565b60405180910390fd5b6109f18383611d13565b505050565b6060600c8383604051610a0a929190613b7f565b90815260200160405180910390208054610a2390613967565b80601f0160208091040260200160405190810160405280929190818152602001828054610a4f90613967565b8015610a9c5780601f10610a7157610100808354040283529160200191610a9c565b820191906000526020600020905b815481529060010190602001808311610a7f57829003601f168201915b5050505050905092915050565b610aba610ab4611d0b565b82611dcc565b610af9576040517f08c379a0000000000000000000000000000000000000000000000000000000008152600401610af090613c0a565b60405180910390fd5b610b04838383611eaa565b505050565b600b818051602081018201805184825260208301602085012081835280955050505050506000915054906101000a900473ffffffffffffffffffffffffffffffffffffffff1681565b60088054610b5f90613967565b80601f0160208091040260200160405190810160405280929190818152602001828054610b8b90613967565b8015610bd85780601f10610bad57610100808354040283529160200191610bd8565b820191906000526020600020905b815481529060010190602001808311610bbb57829003601f168201915b505050505081565b610be8610fac565b610bf157600080fd5b600047905060003373ffffffffffffffffffffffffffffffffffffffff1682604051610c1c90613c5b565b60006040518083038185875af1925050503d8060008114610c59576040519150601f19603f3d011682016040523d82523d6000602084013e610c5e565b606091505b5050905080610ca2576040517f08c379a0000000000000000000000000000000000000000000000000000000008152600401610c9990613cbc565b60405180910390fd5b5050565b610cc183838360405180602001604052806000815250611160565b505050565b600c818051602081018201805184825260208301602085012081835280955050505050506000915090508054610cfb90613967565b80601f0160208091040260200160405190810160405280929190818152602001828054610d2790613967565b8015610d745780601f10610d4957610100808354040283529160200191610d74565b820191906000526020600020905b815481529060010190602001808311610d5757829003601f168201915b505050505081565b6000806002600084815260200190815260200160002060009054906101000a900473ffffffffffffffffffffffffffffffffffffffff169050600073ffffffffffffffffffffffffffffffffffffffff168173ffffffffffffffffffffffffffffffffffffffff161415610e25576040517f08c379a0000000000000000000000000000000000000000000000000000000008152600401610e1c90613d4e565b60405180910390fd5b80915050919050565b600d6020528060005260406000206000915090508054610e4d90613967565b80601f0160208091040260200160405190810160405280929190818152602001828054610e7990613967565b8015610ec65780601f10610e9b57610100808354040283529160200191610ec6565b820191906000526020600020905b815481529060010190602001808311610ea957829003601f168201915b505050505081565b60008073ffffffffffffffffffffffffffffffffffffffff168273ffffffffffffffffffffffffffffffffffffffff161415610f3f576040517f08c379a0000000000000000000000000000000000000000000000000000000008152600401610f3690613de0565b60405180910390fd5b600360008373ffffffffffffffffffffffffffffffffffffffff1673ffffffffffffffffffffffffffffffffffffffff168152602001908152602001600020549050919050565b600e60009054906101000a900473ffffffffffffffffffffffffffffffffffffffff1681565b6000600e60009054906101000a900473ffffffffffffffffffffffffffffffffffffffff1673ffffffffffffffffffffffffffffffffffffffff163373ffffffffffffffffffffffffffffffffffffffff1614905090565b60606001805461101390613967565b80601f016020809104026020016040519081016040528092919081815260200182805461103f90613967565b801561108c5780601f106110615761010080835404028352916020019161108c565b820191906000526020600020905b81548152906001019060200180831161106f57829003601f168201915b5050505050905090565b600060036110e784848080601f016020809104026020016040519081016040528093929190818152602001838380828437600081840152601f19601f82011690508083019250505050505050612111565b101580156111425750600a61113f84848080601f016020809104026020016040519081016040528093929190818152602001838380828437600081840152601f19601f82011690508083019250505050505050612111565b11155b905092915050565b61115c611155611d0b565b83836122c6565b5050565b61117161116b611d0b565b83611dcc565b6111b0576040517f08c379a00000000000000000000000000000000000000000000000000000000081526004016111a790613c0a565b60405180910390fd5b6111bc84848484612433565b50505050565b6000600b83836040516111d6929190613b7f565b908152602001604051809103902060009054906101000a900473ffffffffffffffffffffffffffffffffffffffff16905092915050565b600b848460405161121f929190613b7f565b908152602001604051809103902060009054906101000a900473ffffffffffffffffffffffffffffffffffffffff1673ffffffffffffffffffffffffffffffffffffffff163373ffffffffffffffffffffffffffffffffffffffff16146112b2576040517f82b4290000000000000000000000000000000000000000000000000000000000815260040160405180910390fd5b8181600c86866040516112c6929190613b7f565b908152602001604051809103902091906112e1929190612eca565b5050505050565b60606112f382611c9f565b611332576040517f08c379a000000000000000000000000000000000000000000000000000000000815260040161132990613e72565b60405180910390fd5b600060066000848152602001908152602001600020805461135290613967565b80601f016020809104026020016040519081016040528092919081815260200182805461137e90613967565b80156113cb5780601f106113a0576101008083540402835291602001916113cb565b820191906000526020600020905b8154815290600101906020018083116113ae57829003601f168201915b5050505050905060006113dc61248f565b90506000815114156113f2578192505050611435565b60008251111561142757808260405160200161140f929190613ec3565b60405160208183030381529060405292505050611435565b611430846124a6565b925050505b919050565b6000600560008473ffffffffffffffffffffffffffffffffffffffff1673ffffffffffffffffffffffffffffffffffffffff16815260200190815260200160002060008373ffffffffffffffffffffffffffffffffffffffff1673ffffffffffffffffffffffffffffffffffffffff16815260200190815260200160002060009054906101000a900460ff16905092915050565b600073ffffffffffffffffffffffffffffffffffffffff16600b83836040516114f8929190613b7f565b908152602001604051809103902060009054906101000a900473ffffffffffffffffffffffffffffffffffffffff1673ffffffffffffffffffffffffffffffffffffffff1614611574576040517f82b4290000000000000000000000000000000000000000000000000000000000815260040160405180910390fd5b61157e8282611096565b6115c15781816040517f7f19f48d0000000000000000000000000000000000000000000000000000000081526004016115b8929190613f14565b60405180910390fd5b60006115cd8383611b0d565b905080341015611612576040517f08c379a000000000000000000000000000000000000000000000000000000000815260040161160990613f84565b60405180910390fd5b60008383600860405160200161162a93929190614084565b60405160208183030381529060405290506000600982600a604051602001611654939291906140b5565b60405160208183030381529060405290506000611671600761254d565b905060006116c287878080601f016020809104026020016040519081016040528093929190818152602001838380828437600081840152601f19601f82011690508083019250505050505050612111565b905060006116cf8261255b565b90506117c3604051806060016040528060318152602001614c0d6031913989898080601f016020809104026020016040519081016040528093929190818152602001838380828437600081840152601f19601f820116905080830192505050505050506008805461173f90613967565b80601f016020809104026020016040519081016040528092919081815260200182805461176b90613967565b80156117b85780601f1061178d576101008083540402835291602001916117b8565b820191906000526020600020905b81548152906001019060200180831161179b57829003601f168201915b5050505050866126bc565b60006117f9866117d28761275e565b846040516020016117e593929190614262565b60405160208183030381529060405261275e565b905060008160405160200161180e919061430b565b6040516020818303038152906040529050611840604051806060016040528060398152602001614bd4603991396128d7565b61187f6040518060400160405280600e81526020017f46696e616c20746f6b656e55524900000000000000000000000000000000000081525082611b99565b6118a0604051806060016040528060398152602001614c3e603991396128d7565b6118aa3386612970565b6118b4858261298e565b33600b8b8b6040516118c7929190613b7f565b908152602001604051809103902060006101000a81548173ffffffffffffffffffffffffffffffffffffffff021916908373ffffffffffffffffffffffffffffffffffffffff1602179055508989600d60008881526020019081526020016000209190611935929190612eca565b506119406007612a02565b50505050505050505050565b606061196f604051806060016040528060218152602001614bb3602191396128d7565b600061197b600761254d565b67ffffffffffffffff811115611994576119936133b2565b5b6040519080825280602002602001820160405280156119c757816020015b60608152602001906001900390816119b25790505b50905060005b6119d7600761254d565b811015611b0557600d600082815260200190815260200160002080546119fc90613967565b80601f0160208091040260200160405190810160405280929190818152602001828054611a2890613967565b8015611a755780601f10611a4a57610100808354040283529160200191611a75565b820191906000526020600020905b815481529060010190602001808311611a5857829003601f168201915b5050505050828281518110611a8d57611a8c61432d565b5b6020026020010181905250611af26040518060400160405280601f81526020017f446f6d61696e206e616d653a202573207769746820746f6b656e496420256400815250838381518110611ae457611ae361432d565b5b602002602001015183612a18565b8080611afd9061438b565b9150506119cd565b508091505090565b600080611b5d84848080601f016020809104026020016040519081016040528093929190818152602001838380828437600081840152601f19601f82011690508083019250505050505050612111565b905060008111611b6c57600080fd5b6003811415611b86576706f05b59d3b20000915050611b93565b67016345785d8a00009150505b92915050565b611c318282604051602401611baf9291906143d4565b6040516020818303038152906040527f4b5c4277000000000000000000000000000000000000000000000000000000007bffffffffffffffffffffffffffffffffffffffffffffffffffffffff19166020820180517bffffffffffffffffffffffffffffffffffffffffffffffffffffffff8381831617835250505050612ab7565b5050565b60007f01ffc9a7000000000000000000000000000000000000000000000000000000007bffffffffffffffffffffffffffffffffffffffffffffffffffffffff1916827bffffffffffffffffffffffffffffffffffffffffffffffffffffffff1916149050919050565b60008073ffffffffffffffffffffffffffffffffffffffff166002600084815260200190815260200160002060009054906101000a900473ffffffffffffffffffffffffffffffffffffffff1673ffffffffffffffffffffffffffffffffffffffff1614159050919050565b600033905090565b816004600083815260200190815260200160002060006101000a81548173ffffffffffffffffffffffffffffffffffffffff021916908373ffffffffffffffffffffffffffffffffffffffff160217905550808273ffffffffffffffffffffffffffffffffffffffff16611d8683610d7c565b73ffffffffffffffffffffffffffffffffffffffff167f8c5be1e5ebec7d5bd14f71427d1e84f3dd0314c0f7b2291e5b200ac8c7c3b92560405160405180910390a45050565b6000611dd782611c9f565b611e16576040517f08c379a0000000000000000000000000000000000000000000000000000000008152600401611e0d9061447d565b60405180910390fd5b6000611e2183610d7c565b90508073ffffffffffffffffffffffffffffffffffffffff168473ffffffffffffffffffffffffffffffffffffffff161480611e635750611e62818561143a565b5b80611ea157508373ffffffffffffffffffffffffffffffffffffffff16611e8984610859565b73ffffffffffffffffffffffffffffffffffffffff16145b91505092915050565b8273ffffffffffffffffffffffffffffffffffffffff16611eca82610d7c565b73ffffffffffffffffffffffffffffffffffffffff1614611f20576040517f08c379a0000000000000000000000000000000000000000000000000000000008152600401611f179061450f565b60405180910390fd5b600073ffffffffffffffffffffffffffffffffffffffff168273ffffffffffffffffffffffffffffffffffffffff161415611f90576040517f08c379a0000000000000000000000000000000000000000000000000000000008152600401611f87906145a1565b60405180910390fd5b611f9b838383612ae0565b611fa6600082611d13565b6001600360008573ffffffffffffffffffffffffffffffffffffffff1673ffffffffffffffffffffffffffffffffffffffff1681526020019081526020016000206000828254611ff691906145c1565b925050819055506001600360008473ffffffffffffffffffffffffffffffffffffffff1673ffffffffffffffffffffffffffffffffffffffff168152602001908152602001600020600082825461204d91906145f5565b92505081905550816002600083815260200190815260200160002060006101000a81548173ffffffffffffffffffffffffffffffffffffffff021916908373ffffffffffffffffffffffffffffffffffffffff160217905550808273ffffffffffffffffffffffffffffffffffffffff168473ffffffffffffffffffffffffffffffffffffffff167fddf252ad1be2c89b69c2b068fc378daa952ba7f163c4a11628f55a4df523b3ef60405160405180910390a461210c838383612ae5565b505050565b60008060008084519050600092505b808210156122bb57600085838151811061213d5761213c61432d565b5b602001015160f81c60f81b9050608060f81b817effffffffffffffffffffffffffffffffffffffffffffffffffffffffffffff1916101561218c5760018361218591906145f5565b92506122a7565b60e060f81b817effffffffffffffffffffffffffffffffffffffffffffffffffffffffffffff191610156121ce576002836121c791906145f5565b92506122a6565b60f060f81b817effffffffffffffffffffffffffffffffffffffffffffffffffffffffffffff191610156122105760038361220991906145f5565b92506122a5565b60f8801b817effffffffffffffffffffffffffffffffffffffffffffffffffffffffffffff191610156122515760048361224a91906145f5565b92506122a4565b60fc60f81b817effffffffffffffffffffffffffffffffffffffffffffffffffffffffffffff191610156122935760058361228c91906145f5565b92506122a3565b6006836122a091906145f5565b92505b5b5b5b5b5082806122b39061438b565b935050612120565b829350505050919050565b8173ffffffffffffffffffffffffffffffffffffffff168373ffffffffffffffffffffffffffffffffffffffff161415612335576040517f08c379a000000000000000000000000000000000000000000000000000000000815260040161232c90614697565b60405180910390fd5b80600560008573ffffffffffffffffffffffffffffffffffffffff1673ffffffffffffffffffffffffffffffffffffffff16815260200190815260200160002060008473ffffffffffffffffffffffffffffffffffffffff1673ffffffffffffffffffffffffffffffffffffffff16815260200190815260200160002060006101000a81548160ff0219169083151502179055508173ffffffffffffffffffffffffffffffffffffffff168373ffffffffffffffffffffffffffffffffffffffff167f17307eab39ab6107e8899845ad3d59bd9653f200f220920489ca2b5937696c318360405161242691906130a7565b60405180910390a3505050565b61243e848484611eaa565b61244a84848484612aea565b612489576040517f08c379a000000000000000000000000000000000000000000000000000000000815260040161248090614729565b60405180910390fd5b50505050565b606060405180602001604052806000815250905090565b60606124b182611c9f565b6124f0576040517f08c379a00000000000000000000000000000000000000000000000000000000081526004016124e7906147bb565b60405180910390fd5b60006124fa61248f565b9050600081511161251a5760405180602001604052806000815250612545565b806125248461255b565b604051602001612535929190613ec3565b6040516020818303038152906040525b915050919050565b600081600001549050919050565b606060008214156125a3576040518060400160405280600181526020017f300000000000000000000000000000000000000000000000000000000000000081525090506126b7565b600082905060005b600082146125d55780806125be9061438b565b915050600a826125ce919061480a565b91506125ab565b60008167ffffffffffffffff8111156125f1576125f06133b2565b5b6040519080825280601f01601f1916602001820160405280156126235781602001600182028036833780820191505090505b5090505b600085146126b05760018261263c91906145c1565b9150600a8561264b919061483b565b603061265791906145f5565b60f81b81838151811061266d5761266c61432d565b5b60200101907effffffffffffffffffffffffffffffffffffffffffffffffffffffffffffff1916908160001a905350600a856126a9919061480a565b9450612627565b8093505050505b919050565b612758848484846040516024016126d6949392919061486c565b6040516020818303038152906040527f9fd009f5000000000000000000000000000000000000000000000000000000007bffffffffffffffffffffffffffffffffffffffffffffffffffffffff19166020820180517bffffffffffffffffffffffffffffffffffffffffffffffffffffffff8381831617835250505050612ab7565b50505050565b6060600082511415612781576040518060200160405280600081525090506128d2565b6000604051806060016040528060408152602001614c7760409139905060006003600285516127b091906145f5565b6127ba919061480a565b60046127c691906148c6565b905060006020826127d791906145f5565b67ffffffffffffffff8111156127f0576127ef6133b2565b5b6040519080825280601f01601f1916602001820160405280156128225781602001600182028036833780820191505090505b509050818152600183018586518101602084015b81831015612891576003830192508251603f8160121c168501518253600182019150603f81600c1c168501518253600182019150603f8160061c168501518253600182019150603f8116850151825360018201915050612836565b6003895106600181146128ab57600281146128bb576128c6565b613d3d60f01b60028303526128c6565b603d60f81b60018303525b50505050508093505050505b919050565b61296d816040516024016128eb919061315b565b6040516020818303038152906040527f41304fac000000000000000000000000000000000000000000000000000000007bffffffffffffffffffffffffffffffffffffffffffffffffffffffff19166020820180517bffffffffffffffffffffffffffffffffffffffffffffffffffffffff8381831617835250505050612ab7565b50565b61298a828260405180602001604052806000815250612c72565b5050565b61299782611c9f565b6129d6576040517f08c379a00000000000000000000000000000000000000000000000000000000081526004016129cd90614992565b60405180910390fd5b806006600084815260200190815260200160002090805190602001906129fd929190612f50565b505050565b6001816000016000828254019250508190555050565b612ab2838383604051602401612a30939291906149b2565b6040516020818303038152906040527ff362ca59000000000000000000000000000000000000000000000000000000007bffffffffffffffffffffffffffffffffffffffffffffffffffffffff19166020820180517bffffffffffffffffffffffffffffffffffffffffffffffffffffffff8381831617835250505050612ab7565b505050565b60008151905060006a636f6e736f6c652e6c6f679050602083016000808483855afa5050505050565b505050565b505050565b6000612b0b8473ffffffffffffffffffffffffffffffffffffffff16612ccd565b15612c65578373ffffffffffffffffffffffffffffffffffffffff1663150b7a02612b34611d0b565b8786866040518563ffffffff1660e01b8152600401612b569493929190614a4c565b6020604051808303816000875af1925050508015612b9257506040513d601f19601f82011682018060405250810190612b8f9190614aad565b60015b612c15573d8060008114612bc2576040519150601f19603f3d011682016040523d82523d6000602084013e612bc7565b606091505b50600081511415612c0d576040517f08c379a0000000000000000000000000000000000000000000000000000000008152600401612c0490614729565b60405180910390fd5b805181602001fd5b63150b7a0260e01b7bffffffffffffffffffffffffffffffffffffffffffffffffffffffff1916817bffffffffffffffffffffffffffffffffffffffffffffffffffffffff191614915050612c6a565b600190505b949350505050565b612c7c8383612cf0565b612c896000848484612aea565b612cc8576040517f08c379a0000000000000000000000000000000000000000000000000000000008152600401612cbf90614729565b60405180910390fd5b505050565b6000808273ffffffffffffffffffffffffffffffffffffffff163b119050919050565b600073ffffffffffffffffffffffffffffffffffffffff168273ffffffffffffffffffffffffffffffffffffffff161415612d60576040517f08c379a0000000000000000000000000000000000000000000000000000000008152600401612d5790614b26565b60405180910390fd5b612d6981611c9f565b15612da9576040517f08c379a0000000000000000000000000000000000000000000000000000000008152600401612da090614b92565b60405180910390fd5b612db560008383612ae0565b6001600360008473ffffffffffffffffffffffffffffffffffffffff1673ffffffffffffffffffffffffffffffffffffffff1681526020019081526020016000206000828254612e0591906145f5565b92505081905550816002600083815260200190815260200160002060006101000a81548173ffffffffffffffffffffffffffffffffffffffff021916908373ffffffffffffffffffffffffffffffffffffffff160217905550808273ffffffffffffffffffffffffffffffffffffffff16600073ffffffffffffffffffffffffffffffffffffffff167fddf252ad1be2c89b69c2b068fc378daa952ba7f163c4a11628f55a4df523b3ef60405160405180910390a4612ec660008383612ae5565b5050565b828054612ed690613967565b90600052602060002090601f016020900481019282612ef85760008555612f3f565b82601f10612f1157803560ff1916838001178555612f3f565b82800160010185558215612f3f579182015b82811115612f3e578235825591602001919060010190612f23565b5b509050612f4c9190612fd6565b5090565b828054612f5c90613967565b90600052602060002090601f016020900481019282612f7e5760008555612fc5565b82601f10612f9757805160ff1916838001178555612fc5565b82800160010185558215612fc5579182015b82811115612fc4578251825591602001919060010190612fa9565b5b509050612fd29190612fd6565b5090565b5b80821115612fef576000816000905550600101612fd7565b5090565b6000604051905090565b600080fd5b600080fd5b60007fffffffff0000000000000000000000000000000000000000000000000000000082169050919050565b61303c81613007565b811461304757600080fd5b50565b60008135905061305981613033565b92915050565b60006020828403121561307557613074612ffd565b5b60006130838482850161304a565b91505092915050565b60008115159050919050565b6130a18161308c565b82525050565b60006020820190506130bc6000830184613098565b92915050565b600081519050919050565b600082825260208201905092915050565b60005b838110156130fc5780820151818401526020810190506130e1565b8381111561310b576000848401525b50505050565b6000601f19601f8301169050919050565b600061312d826130c2565b61313781856130cd565b93506131478185602086016130de565b61315081613111565b840191505092915050565b600060208201905081810360008301526131758184613122565b905092915050565b6000819050919050565b6131908161317d565b811461319b57600080fd5b50565b6000813590506131ad81613187565b92915050565b6000602082840312156131c9576131c8612ffd565b5b60006131d78482850161319e565b91505092915050565b600073ffffffffffffffffffffffffffffffffffffffff82169050919050565b600061320b826131e0565b9050919050565b61321b81613200565b82525050565b60006020820190506132366000830184613212565b92915050565b61324581613200565b811461325057600080fd5b50565b6000813590506132628161323c565b92915050565b6000806040838503121561327f5761327e612ffd565b5b600061328d85828601613253565b925050602061329e8582860161319e565b9150509250929050565b600080fd5b600080fd5b600080fd5b60008083601f8401126132cd576132cc6132a8565b5b8235905067ffffffffffffffff8111156132ea576132e96132ad565b5b602083019150836001820283011115613306576133056132b2565b5b9250929050565b6000806020838503121561332457613323612ffd565b5b600083013567ffffffffffffffff81111561334257613341613002565b5b61334e858286016132b7565b92509250509250929050565b60008060006060848603121561337357613372612ffd565b5b600061338186828701613253565b935050602061339286828701613253565b92505060406133a38682870161319e565b9150509250925092565b600080fd5b7f4e487b7100000000000000000000000000000000000000000000000000000000600052604160045260246000fd5b6133ea82613111565b810181811067ffffffffffffffff82111715613409576134086133b2565b5b80604052505050565b600061341c612ff3565b905061342882826133e1565b919050565b600067ffffffffffffffff821115613448576134476133b2565b5b61345182613111565b9050602081019050919050565b82818337600083830152505050565b600061348061347b8461342d565b613412565b90508281526020810184848401111561349c5761349b6133ad565b5b6134a784828561345e565b509392505050565b600082601f8301126134c4576134c36132a8565b5b81356134d484826020860161346d565b91505092915050565b6000602082840312156134f3576134f2612ffd565b5b600082013567ffffffffffffffff81111561351157613510613002565b5b61351d848285016134af565b91505092915050565b60006020828403121561353c5761353b612ffd565b5b600061354a84828501613253565b91505092915050565b61355c8161317d565b82525050565b60006020820190506135776000830184613553565b92915050565b6000613588826131e0565b9050919050565b6135988161357d565b82525050565b60006020820190506135b3600083018461358f565b92915050565b6135c28161308c565b81146135cd57600080fd5b50565b6000813590506135df816135b9565b92915050565b600080604083850312156135fc576135fb612ffd565b5b600061360a85828601613253565b925050602061361b858286016135d0565b9150509250929050565b600067ffffffffffffffff8211156136405761363f6133b2565b5b61364982613111565b9050602081019050919050565b600061366961366484613625565b613412565b905082815260208101848484011115613685576136846133ad565b5b61369084828561345e565b509392505050565b600082601f8301126136ad576136ac6132a8565b5b81356136bd848260208601613656565b91505092915050565b600080600080608085870312156136e0576136df612ffd565b5b60006136ee87828801613253565b94505060206136ff87828801613253565b93505060406137108782880161319e565b925050606085013567ffffffffffffffff81111561373157613730613002565b5b61373d87828801613698565b91505092959194509250565b6000806000806040858703121561376357613762612ffd565b5b600085013567ffffffffffffffff81111561378157613780613002565b5b61378d878288016132b7565b9450945050602085013567ffffffffffffffff8111156137b0576137af613002565b5b6137bc878288016132b7565b925092505092959194509250565b600080604083850312156137e1576137e0612ffd565b5b60006137ef85828601613253565b925050602061380085828601613253565b9150509250929050565b600081519050919050565b600082825260208201905092915050565b6000819050602082019050919050565b600082825260208201905092915050565b6000613852826130c2565b61385c8185613836565b935061386c8185602086016130de565b61387581613111565b840191505092915050565b600061388c8383613847565b905092915050565b6000602082019050919050565b60006138ac8261380a565b6138b68185613815565b9350836020820285016138c885613826565b8060005b8581101561390457848403895281516138e58582613880565b94506138f083613894565b925060208a019950506001810190506138cc565b50829750879550505050505092915050565b6000602082019050818103600083015261393081846138a1565b905092915050565b7f4e487b7100000000000000000000000000000000000000000000000000000000600052602260045260246000fd5b6000600282049050600182168061397f57607f821691505b6020821081141561399357613992613938565b5b50919050565b7f4552433732313a20617070726f76656420717565727920666f72206e6f6e657860008201527f697374656e7420746f6b656e0000000000000000000000000000000000000000602082015250565b60006139f5602c836130cd565b9150613a0082613999565b604082019050919050565b60006020820190508181036000830152613a24816139e8565b9050919050565b7f4552433732313a20617070726f76616c20746f2063757272656e74206f776e6560008201527f7200000000000000000000000000000000000000000000000000000000000000602082015250565b6000613a876021836130cd565b9150613a9282613a2b565b604082019050919050565b60006020820190508181036000830152613ab681613a7a565b9050919050565b7f4552433732313a20617070726f76652063616c6c6572206973206e6f74206f7760008201527f6e6572206e6f7220617070726f76656420666f7220616c6c0000000000000000602082015250565b6000613b196038836130cd565b9150613b2482613abd565b604082019050919050565b60006020820190508181036000830152613b4881613b0c565b9050919050565b600081905092915050565b6000613b668385613b4f565b9350613b7383858461345e565b82840190509392505050565b6000613b8c828486613b5a565b91508190509392505050565b7f4552433732313a207472616e736665722063616c6c6572206973206e6f74206f60008201527f776e6572206e6f7220617070726f766564000000000000000000000000000000602082015250565b6000613bf46031836130cd565b9150613bff82613b98565b604082019050919050565b60006020820190508181036000830152613c2381613be7565b9050919050565b600081905092915050565b50565b6000613c45600083613c2a565b9150613c5082613c35565b600082019050919050565b6000613c6682613c38565b9150819050919050565b7f5769746864726177616c206661696c6564000000000000000000000000000000600082015250565b6000613ca66011836130cd565b9150613cb182613c70565b602082019050919050565b60006020820190508181036000830152613cd581613c99565b9050919050565b7f4552433732313a206f776e657220717565727920666f72206e6f6e657869737460008201527f656e7420746f6b656e0000000000000000000000000000000000000000000000602082015250565b6000613d386029836130cd565b9150613d4382613cdc565b604082019050919050565b60006020820190508181036000830152613d6781613d2b565b9050919050565b7f4552433732313a2062616c616e636520717565727920666f7220746865207a6560008201527f726f206164647265737300000000000000000000000000000000000000000000602082015250565b6000613dca602a836130cd565b9150613dd582613d6e565b604082019050919050565b60006020820190508181036000830152613df981613dbd565b9050919050565b7f45524337323155524953746f726167653a2055524920717565727920666f722060008201527f6e6f6e6578697374656e7420746f6b656e000000000000000000000000000000602082015250565b6000613e5c6031836130cd565b9150613e6782613e00565b604082019050919050565b60006020820190508181036000830152613e8b81613e4f565b9050919050565b6000613e9d826130c2565b613ea78185613b4f565b9350613eb78185602086016130de565b80840191505092915050565b6000613ecf8285613e92565b9150613edb8284613e92565b91508190509392505050565b6000613ef383856130cd565b9350613f0083858461345e565b613f0983613111565b840190509392505050565b60006020820190508181036000830152613f2f818486613ee7565b90509392505050565b7f4e6f7420656e6f756768204d6174696320706169640000000000000000000000600082015250565b6000613f6e6015836130cd565b9150613f7982613f38565b602082019050919050565b60006020820190508181036000830152613f9d81613f61565b9050919050565b7f2e00000000000000000000000000000000000000000000000000000000000000600082015250565b6000613fda600183613b4f565b9150613fe582613fa4565b600182019050919050565b60008190508160005260206000209050919050565b6000815461401281613967565b61401c8186613b4f565b9450600182166000811461403757600181146140485761407b565b60ff1983168652818601935061407b565b61405185613ff0565b60005b8381101561407357815481890152600182019150602081019050614054565b838801955050505b50505092915050565b6000614091828587613b5a565b915061409c82613fcd565b91506140a88284614005565b9150819050949350505050565b60006140c18286614005565b91506140cd8285613e92565b91506140d98284614005565b9150819050949350505050565b7f7b226e616d65223a202200000000000000000000000000000000000000000000600082015250565b600061411c600a83613b4f565b9150614127826140e6565b600a82019050919050565b7f222c20226465736372697074696f6e223a20224120646f6d61696e206f6e207460008201527f686520446f6765206e616d652073657276696365222c2022696d616765223a2060208201527f22646174613a696d6167652f7376672b786d6c3b6261736536342c0000000000604082015250565b60006141b4605b83613b4f565b91506141bf82614132565b605b82019050919050565b7f222c226c656e677468223a220000000000000000000000000000000000000000600082015250565b6000614200600c83613b4f565b915061420b826141ca565b600c82019050919050565b7f227d000000000000000000000000000000000000000000000000000000000000600082015250565b600061424c600283613b4f565b915061425782614216565b600282019050919050565b600061426d8261410f565b91506142798286613e92565b9150614284826141a7565b91506142908285613e92565b915061429b826141f3565b91506142a78284613e92565b91506142b28261423f565b9150819050949350505050565b7f646174613a6170706c69636174696f6e2f6a736f6e3b6261736536342c000000600082015250565b60006142f5601d83613b4f565b9150614300826142bf565b601d82019050919050565b6000614316826142e8565b91506143228284613e92565b915081905092915050565b7f4e487b7100000000000000000000000000000000000000000000000000000000600052603260045260246000fd5b7f4e487b7100000000000000000000000000000000000000000000000000000000600052601160045260246000fd5b60006143968261317d565b91507fffffffffffffffffffffffffffffffffffffffffffffffffffffffffffffffff8214156143c9576143c861435c565b5b600182019050919050565b600060408201905081810360008301526143ee8185613122565b905081810360208301526144028184613122565b90509392505050565b7f4552433732313a206f70657261746f7220717565727920666f72206e6f6e657860008201527f697374656e7420746f6b656e0000000000000000000000000000000000000000602082015250565b6000614467602c836130cd565b91506144728261440b565b604082019050919050565b600060208201905081810360008301526144968161445a565b9050919050565b7f4552433732313a207472616e736665722066726f6d20696e636f72726563742060008201527f6f776e6572000000000000000000000000000000000000000000000000000000602082015250565b60006144f96025836130cd565b91506145048261449d565b604082019050919050565b60006020820190508181036000830152614528816144ec565b9050919050565b7f4552433732313a207472616e7366657220746f20746865207a65726f2061646460008201527f7265737300000000000000000000000000000000000000000000000000000000602082015250565b600061458b6024836130cd565b91506145968261452f565b604082019050919050565b600060208201905081810360008301526145ba8161457e565b9050919050565b60006145cc8261317d565b91506145d78361317d565b9250828210156145ea576145e961435c565b5b828203905092915050565b60006146008261317d565b915061460b8361317d565b9250827fffffffffffffffffffffffffffffffffffffffffffffffffffffffffffffffff038211156146405761463f61435c565b5b828201905092915050565b7f4552433732313a20617070726f766520746f2063616c6c657200000000000000600082015250565b60006146816019836130cd565b915061468c8261464b565b602082019050919050565b600060208201905081810360008301526146b081614674565b9050919050565b7f4552433732313a207472616e7366657220746f206e6f6e20455243373231526560008201527f63656976657220696d706c656d656e7465720000000000000000000000000000602082015250565b60006147136032836130cd565b915061471e826146b7565b604082019050919050565b6000602082019050818103600083015261474281614706565b9050919050565b7f4552433732314d657461646174613a2055524920717565727920666f72206e6f60008201527f6e6578697374656e7420746f6b656e0000000000000000000000000000000000602082015250565b60006147a5602f836130cd565b91506147b082614749565b604082019050919050565b600060208201905081810360008301526147d481614798565b9050919050565b7f4e487b7100000000000000000000000000000000000000000000000000000000600052601260045260246000fd5b60006148158261317d565b91506148208361317d565b9250826148305761482f6147db565b5b828204905092915050565b60006148468261317d565b91506148518361317d565b925082614861576148606147db565b5b828206905092915050565b600060808201905081810360008301526148868187613122565b9050818103602083015261489a8186613122565b905081810360408301526148ae8185613122565b90506148bd6060830184613553565b95945050505050565b60006148d18261317d565b91506148dc8361317d565b9250817fffffffffffffffffffffffffffffffffffffffffffffffffffffffffffffffff04831182151516156149155761491461435c565b5b828202905092915050565b7f45524337323155524953746f726167653a2055524920736574206f66206e6f6e60008201527f6578697374656e7420746f6b656e000000000000000000000000000000000000602082015250565b600061497c602e836130cd565b915061498782614920565b604082019050919050565b600060208201905081810360008301526149ab8161496f565b9050919050565b600060608201905081810360008301526149cc8186613122565b905081810360208301526149e08185613122565b90506149ef6040830184613553565b949350505050565b600081519050919050565b600082825260208201905092915050565b6000614a1e826149f7565b614a288185614a02565b9350614a388185602086016130de565b614a4181613111565b840191505092915050565b6000608082019050614a616000830187613212565b614a6e6020830186613212565b614a7b6040830185613553565b8181036060830152614a8d8184614a13565b905095945050505050565b600081519050614aa781613033565b92915050565b600060208284031215614ac357614ac2612ffd565b5b6000614ad184828501614a98565b91505092915050565b7f4552433732313a206d696e7420746f20746865207a65726f2061646472657373600082015250565b6000614b106020836130cd565b9150614b1b82614ada565b602082019050919050565b60006020820190508181036000830152614b3f81614b03565b9050919050565b7f4552433732313a20746f6b656e20616c7265616479206d696e74656400000000600082015250565b6000614b7c601c836130cd565b9150614b8782614b46565b602082019050919050565b60006020820190508181036000830152614bab81614b6f565b905091905056fe47657474696e6720616c6c20646f6d61696e732066726f6d20636f6e74726163740a2d2d2d2d2d2d2d2d2d2d2d2d2d2d2d2d2d2d2d2d2d2d2d2d2d2d2d2d2d2d2d2d2d2d2d2d2d2d2d2d2d2d2d2d2d2d2d2d2d2d2d2d2d2d2d2d5265676973746572696e672025732e2573206f6e2074686520636f6e7472616374207769746820746f6b656e49442025642d2d2d2d2d2d2d2d2d2d2d2d2d2d2d2d2d2d2d2d2d2d2d2d2d2d2d2d2d2d2d2d2d2d2d2d2d2d2d2d2d2d2d2d2d2d2d2d2d2d2d2d2d2d2d2d0a4142434445464748494a4b4c4d4e4f505152535455565758595a6162636465666768696a6b6c6d6e6f707172737475767778797a303132333435363738392b2fa2646970667358221220c186f8dca3665ddd5bdbf4374a3183f6df9cdca9e27f8ce158cb291986720dd564736f6c634300080a00333c73766720786d6c6e733d22687474703a2f2f7777772e77332e6f72672f323030302f737667222077696474683d2232373022206865696768743d22323730222066696c6c3d226e6f6e65223e3c706174682066696c6c3d2275726c282342292220643d224d302030683237307632373048307a222f3e3c646566733e3c66696c7465722069643d22412220636f6c6f722d696e746572706f6c6174696f6e2d66696c746572733d2273524742222066696c746572556e6974733d227573657253706163654f6e55736522206865696768743d22323730222077696474683d22323730223e3c666544726f70536861646f772064783d2230222064793d22312220737464446576696174696f6e3d22322220666c6f6f642d6f7061636974793d222e323235222077696474683d223230302522206865696768743d2232303025222f3e3c2f66696c7465723e3c2f646566733e3c7061746820643d224d37322e3836332034322e393439632d2e3636382d2e3338372d312e3432362d2e35392d322e3139372d2e3539732d312e3532392e3230342d322e3139372e35396c2d31302e30383120362e3033322d362e383520332e3933342d31302e30383120362e303332632d2e3636382e3338372d312e3432362e35392d322e3139372e3539732d312e3532392d2e3230342d322e3139372d2e35396c2d382e3031332d342e37323161342e353220342e35322030203020312d312e3538392d312e363136632d2e3338342d2e3636352d2e3539342d312e3431382d2e3630382d322e313837762d392e3331632d2e3031332d2e3737352e3138352d312e3533382e3537322d322e32303861342e323520342e323520302030203120312e3632352d312e3539356c372e3838342d342e3539632e3636382d2e33383720312e3432362d2e353920322e3139372d2e353973312e3532392e32303420322e3139372e35396c372e38383420342e353961342e353220342e353220302030203120312e35383920312e363136632e3338342e3636352e35393420312e3431382e36303820322e31383776362e3033326c362e38352d342e303635762d362e303332632e3031332d2e3737352d2e3138352d312e3533382d2e3537322d322e32303861342e323520342e32352030203020302d312e3632352d312e3539354c34312e3435362032342e3539632d2e3636382d2e3338372d312e3432362d2e35392d322e3139372d2e3539732d312e3532392e3230342d322e3139372e35396c2d31342e38363420382e36353561342e323520342e32352030203020302d312e36323520312e353935632d2e3338372e36372d2e35383520312e3433342d2e35373220322e3230387631372e343431632d2e3031332e3737352e31383520312e3533382e35373220322e32303861342e323520342e323520302030203020312e36323520312e3539356c31342e38363420382e363535632e3636382e33383720312e3432362e353920322e3139372e353973312e3532392d2e32303420322e3139372d2e35396c31302e3038312d352e39303120362e38352d342e3036352031302e3038312d352e393031632e3636382d2e33383720312e3432362d2e353920322e3139372d2e353973312e3532392e32303420322e3139372e35396c372e38383420342e353961342e353220342e353220302030203120312e35383920312e363136632e3338342e3636352e35393420312e3431382e36303820322e31383776392e333131632e3031332e3737352d2e31383520312e3533382d2e35373220322e32303861342e323520342e32352030203020312d312e36323520312e3539356c2d372e38383420342e373231632d2e3636382e3338372d312e3432362e35392d322e3139372e3539732d312e3532392d2e3230342d322e3139372d2e35396c2d372e3838342d342e353961342e353220342e35322030203020312d312e3538392d312e363136632d2e3338352d2e3636352d2e3539342d312e3431382d2e3630382d322e313837762d362e3033326c2d362e383520342e30363576362e303332632d2e3031332e3737352e31383520312e3533382e35373220322e32303861342e323520342e323520302030203020312e36323520312e3539356c31342e38363420382e363535632e3636382e33383720312e3432362e353920322e3139372e353973312e3532392d2e32303420322e3139372d2e35396c31342e3836342d382e363535632e3635372d2e33393420312e3230342d2e393520312e3538392d312e363136732e3539342d312e3431382e3630392d322e3138375635352e353338632e3031332d2e3737352d2e3138352d312e3533382d2e3537322d322e32303861342e323520342e32352030203020302d312e3632352d312e3539356c2d31342e3939332d382e3738367a222066696c6c3d2223666666222f3e3c646566733e3c6c696e6561724772616469656e742069643d2242222078313d2230222079313d2230222078323d22323730222079323d2232373022206772616469656e74556e6974733d227573657253706163654f6e557365223e3c73746f702073746f702d636f6c6f723d2223636235656565222f3e3c73746f70206f66667365743d2231222073746f702d636f6c6f723d2223306364376534222073746f702d6f7061636974793d222e3939222f3e3c2f6c696e6561724772616469656e743e3c2f646566733e3c7465787420783d2233322e352220793d223233312220666f6e742d73697a653d223237222066696c6c3d2223666666222066696c7465723d2275726c282341292220666f6e742d66616d696c793d22506c7573204a616b617274612053616e732c44656a6156752053616e732c4e6f746f20436f6c6f7220456d6f6a692c4170706c6520436f6c6f7220456d6f6a692c73616e732d73657269662220666f6e742d7765696768743d22626f6c64223e",
  "linkReferences": {},
  "deployedLinkReferences": {}
}